:0200000480007A
:100000006F0080576F00C0376F0000566F00C055FB
:100010006F0080556F0040556F0000556F00C05451
:100020006F0080546F0040546F0000546F00C05345
:100030006F0080536F0040536F0000536F00C05239
:100040006F0080526F0040526F0000526F00C0512D
:100050006F0080516F0040516F0000516F00C05021
:100060006F0080506F0040506F0000506F00C04F15
:100070006F00804F6F00404F6F00004F6F000060B7
:1000800097310100938101B417010300130181F737
:1000900017050000130505F713651500731055309B
:1000A000138581F4138681253306A640930500004D
:1000B000EF50400C1755000013054506EF30C07196
:1000C000EF40D07B130500009305000013060000ED
:0C00D000EF0000016F30807167800000BD
:1000E000130101812326117E2324817E2322917E08
:1000F0002320217F232E317D232C417D232A517DF6
:100100002328617D2326717D93060000130101FCE5
:10011000130600009305000013050020EF20401097
:1001200063080522130405001705010013050517D0
:10013000EF40007C732920B0F32900B0970501003F
:10014000938545221306010013050400EF20402D7E
:10015000F32420B0338A2441F32200B017050100B4
:100160001305C514B38A3241EF40807813870A0023
:1001700093060A0013860A0093050A00170501007A
:100180001305C513EF40C051371600001306068053
:10019000971501009385059D13050100EF40103B65
:1001A000130B050063160504170501001305451917
:1001B000EF40007413050400EF30C0661301010422
:1001C0008320C17E13050B000324817E8324417E9E
:1001D0000329017E8329C17D032A817D832A417DF4
:1001E000032B017D832BC17C1301017F67800000FD
:1001F000170501001305850FEF40806FB71700004A
:1002000013830780130401009714010093848495DD
:10021000330B2300170901001309491103250400BA
:100220001304040193840401EF10907D83AB04FF59
:100230009309050013850B00EF10907C130A05004D
:10024000032504FFEF10D07C930A050013850B00F3
:10025000EF10107C1307050093860A0013060A00AE
:100260009385090013050900EF408043032544FFEF
:10027000EF10107983AB44FF9309050013850B0041
:10028000EF101078130A0500032544FFEF10507893
:10029000930A050013850B00EF10907713070500F4
:1002A00093860A0013060A009385090013050900C6
:1002B000EF40003F032584FFEF10907483AB84FF71
:1002C0009309050013850B00EF109073130A0500C6
:1002D000032584FFEF10D073930A050013850B00EC
:1002E000EF1010731307050093860A0013060A0027
:1002F0009385090013050900EF40803A0325C4FFE8
:10030000EF10107083ABC4FF9309050013850B0039
:10031000EF10106F130A05000325C4FFEF10506F94
:10032000930A050013850B00EF10906E130705006C
:1003300093860A0013060A00938509001305090035
:10034000EF400036E31C64ED130B10006FF01FE765
:1003500017050100130545F3EF408059130B1000FA
:100360006FF0DFE50000000000000000000000006A
:100370001305000067800000130000001300000058
:100380001305000067800000130000001300000048
:100390001305000067800000130000001300000038
:1003A0001305000067800000130000001300000028
:1003B0001305000067800000130000001300000018
:1003C0001305000067800000130000001300000008
:1003D00013050000678000001300000013000000F8
:1003E00013050000678000001300000013000000E8
:1003F00013050000678000001300000013000000D8
:1004000013050000678000001300000013000000C7
:1004100013050000678000001300000013000000B7
:1004200013050000678000001300000013000000A7
:100430001305000067800000130000001300000097
:100440001305000067800000130000001300000087
:100450001305000067800000130000001300000077
:100460001305000067800000130000001300000067
:100470001305000067800000130000001300000057
:100480001305000067800000130000001300000047
:100490001305000067800000130000001300000037
:1004A0001305000067800000130000001300000027
:1004B0001305000067800000130000001300000017
:1004C0001305000067800000130000001300000007
:1004D00013050000678000001300000013000000F7
:1004E00013050000678000001300000013000000E7
:1004F00013050000678000001300000013000000D7
:1005000013050000678000001300000013000000C6
:1005100013050000678000001300000013000000B6
:1005200013050000678000001300000013000000A6
:100530001305000067800000130000001300000096
:100540001305000067800000130000001300000086
:100550001305000067800000130000001300000076
:100560001305000067800000170501001305D5B4CE
:10057000EF4000386FF05FFF130101FC23201100F2
:100580002322A1002324B1002326C1002328D10067
:10059000232AE100232CF100232E01012320110343
:1005A0002322510223246102232671022328C1033E
:1005B000232AD103232CE103232EF103F322203439
:1005C00013032000638862021303B0006388620093
:1005D00013033000638862006F00C002EF00403EEA
:1005E0006F004003170501001305C5A8EF40403018
:1005F0006F004002170501001305C5A2EF40402F10
:100600006F004001170501001305E5A8EF40402EDB
:100610006F004002F3221034038302001305300000
:100620003373A3006314A3009382220093822200F9
:10063000739012348320010003254100832581003B
:100640000326C1008326010103274101832781017D
:100650000328C1018328010283224102032381026E
:100660008323C102032E0103832E4103032F810341
:10067000832FC10313010104730020307300203065
:100680003305A04023AEA1F41305F0FF67800000FE
:1006900097070100938787A41308500537070010B8
:1006A0002320070183C61700638006062320D70096
:1006B00083C22700638A02042320570003C3370044
:1006C000630403042320670083C34700638E03028F
:1006D0002320770003C55700630805022320A700E5
:1006E00083C56700638205022320B70003C6770035
:1006F00093878700630A06002320C70003C807000A
:10070000E31008FA67800000678000001300000013
:100710009307800523AEF1F41305F0FF6780000016
:100720009307800523AEF1F41305F0FF6780000006
:100730009307800523AEF1F41305F0FF67800000F6
:100740009307800523AEF1F41305F0FF67800000E6
:100750009307800523AEF1F41305F0FF67800000D6
:100760001305F0FF67800000130000001300000075
:100770009307C00023AEF1F41305F0FF678000007B
:10078000B707048023A0A700730050106F0000007B
:100790009307800523AEF1F41305F0FF6780000096
:1007A0009307B00023AEF1F41305F0FF678000005B
:1007B000B727000023A2F5001305000067800000A2
:1007C0009307800523AEF1F41305F0FF6780000066
:1007D0009307800523AEF1F41305F0FF6780000056
:1007E000930780FA23AEF1F4130500006780000040
:1007F00013051000678000001300000013000000C4
:10080000930780FA23AEF1F41305F0FF6780000030
:100810001305F5FF13351500678000001300000075
:100820009307600123AEF1F41305F0FF6780000029
:100830009307F00123AEF1F41305F0FF6780000089
:100840001305000067800000130000001300000083
:100850009307800523AEF1F41305F0FF67800000D5
:100860001305F0FF67800000130000001300000074
:100870009307800523AEF1F41305F0FF67800000B5
:100880001305000067800000130000001300000043
:10089000B727000023A2F5001305000067800000C1
:1008A0001305F0FF67800000130000001300000034
:1008B0001305F0FF67800000130000001300000024
:1008C0009307200023AEF1F41305F0FF67800000CA
:1008D0009307800523AEF1F41305F0FF6780000055
:1008E0009307A00023AEF1F41305F0FF678000002A
:1008F000130101FF23202101138981F483270900BB
:1009000023248100232291002326110093840500D3
:1009100013040600638A070213060400938504008B
:1009200017250100130505AAEF0080598320C10097
:1009300013050400032481008324410003290100DE
:100940001301010167800000B7C5010013063000E4
:1009500093850520172501001305C5A6EF00404922
:1009600093021000232059006FF01FFB13000000BA
:1009700023ACA1F213050000678000001300000003
:10098000138781F3032307003305A3002320A70067
:10099000637C250097F202009382C266637655005D
:1009A00013050300678000009307C0001303F0FFE6
:1009B00023AEF1F41305030067800000130000006C
:1009C000130101FF23229100232611009307100831
:1009D0009384050063CC170D9307F00263D61703C9
:1009E000938008FD9302100563E4120217F30000E0
:1009F0001303037193982000338768008323070053
:100A0000B385630067800500930E1001638AD80FD9
:100A10009304500517F700001307476CB70F001039
:100A200023A09F0083471700638E070423A0FF00C5
:100A3000834027006388000423A01F0083423700FF
:100A40006382020423A05F0003434700630C030298
:100A500023A06F00834857006386080223A01F016C
:100A6000834367006380030223A07F0083457700F0
:100A7000638A05001307870023A0BF008344070093
:100A8000E39004FA8320C100832441001301010193
:100A9000678000008320C100130E800523AEC1F5DE
:100AA0008324410013010101678000009300F0409E
:100AB000E3C010F79302F03F63D61203938808C097
:100AC0001303F000E36613F517F700001307C77769
:100AD000939328003385E300832505003386E500E2
:100AE00067000600130EC00AE38EC8F963461E03B2
:100AF000130F9009E388E8F9930F900AE39AF8F14D
:100B0000130F80FA23AEE1F56FF0DFF73725000011
:100B100023A2A4006FF01FF7930E600DE39AD8EFA5
:100B200023ACA1F26FF01FF61308F00123AE01F51C
:100B30006FF05FF59306200023AED1F46FF09FF4C1
:100B4000370404802320A400730050106F000000BD
:100B50009304600123AE91F46FF0DFF223202101B2
:100B6000138981F42324810013040600032609005D
:100B70006306060213060400032481000329010012
:100B80008320C100938504008324410017250100C0
:100B900013054583130101016F008032B7C60100C0
:100BA0001306300093850620172501001305858163
:100BB000EF00002413081000232009016FF09FFBB1
:100BC0008327C500638807208328050163840820E4
:100BD0000328050003469500032745018346480185
:100BE000B3E2C600A304550013F306026302031E1A
:100BF000B383E84093050001138F030063F475008D
:100C0000130F0001638AE81C338EE700834E0E0049
:100C1000930F1700130610002300D801232AF501B3
:100C20006370761AB386F70183C2060013032700A8
:100C30009305200023005800232A650063F27518ED
:100C4000338E6700834E0E00130637009306300084
:100C50002300D801232AC50063F47616B382C700A7
:100C600003C3020093054700130E400023006800F1
:100C7000232AB50063767E14B38EB70083C60E00B8
:100C800013065700930250002300D800232AC50002
:100C900063F872123383C70083450300930E670025
:100CA000130E60002300B800232AD501637A7E105A
:100CB000B386D70183C206001306770013037000C2
:100CC00023005800232AC500637C730EB385C70038
:100CD00083CE050093068700130E80002300D80101
:100CE000232AD500637E7E0CB382D70003C30200A3
:100CF000130697009305900023006800232AC5007F
:100D000063F0750CB38EC70083C60E009302A70074
:100D1000130EA0002300D800232A550063727E0A18
:100D200033835700834503001306B700930EB000CA
:100D30002300B800232AC50063F47E08B386C700E9
:100D400083C206001303C700130EC000230058001F
:100D5000232A650063767E06B385670083CE05008F
:100D60001306D7009306D0002300D801232AC5001C
:100D700063F87604B382C70003C302009305E7005B
:100D8000130EE00023006800232AB500637A7E0278
:100D9000B38EB70083C60E001306F7009302F0006F
:100DA0002300D800232AC50063FC7200B387C70064
:100DB00003C307001307070123006800232AE50087
:100DC00093050000638403009305FFFF3387F5015B
:100DD0006384E800678000008348480023280500FA
:100DE00013F5D80F2302A80067800000130000004D
:100DF000130101FE232A910083240500232C810086
:100E00002328210123263101232E110023820400EF
:100E100023840400930770FC2384F40023880400D7
:100E20002322B50013040500138905009309060069
:100E300093060000138605003745420F9305000016
:100E4000EF208050B7028000637455029350F50084
:100E5000130700F82386E40013F3F00F1355750011
:100E6000238264009373F50F2380740023860400AB
:100E70002386340123043401A304040097050000F1
:100E8000938545D4232224018320C1012328040013
:100E900023260400232A0400232E0400232C04000C
:100EA000232204022320B40203248101832441016C
:100EB000032901018329C100130101026780000099
:100EC000130101FF23260100638C0522630A062219
:100ED000032505003386C50093071003034745012A
:100EE000232601008326C1009372F70F63E2D70A1D
:100EF0000323C10093031300232671000328C100BC
:100F000063E807098328C100138E18002326C10156
:100F1000832EC10063EED707032FC100930F1F007C
:100F20002326F1010327C10063E4E7068326C100FD
:100F300013831600232661008323C10063EA77042C
:100F40000328C1009308180023261101032EC100B5
:100F500063E0C705832EC100138F1E002326E10125
:100F6000832FC10063E6F7030327C1009306170030
:100F70002326D1000323C10063EC67008323C10053
:100F800013881300232601018328C100E3F217F719
:100F900093F20202E38402F423260100032EC1002F
:100FA00063E2C70B832EC100138F1E002326E101CD
:100FB000832FC10063E8F7090327C10093061700D8
:100FC0002326D1000323C10063EE67068323C100FB
:100FD00013881300232601018328C10063E4170747
:100FE0008322C100138E12002326C101832EC1006B
:100FF00063EAD705032FC100930F1F002326F101D9
:101000000327C10063E0E7048326C10013831600B1
:10101000232661008323C10063E677020328C10011
:1010200093081800232611018322C10063EC5700A6
:10103000032EC100930E1E002326D101032FC100F1
:10104000E3F2E7F783CF05002300F5012326010033
:101050000327C10063E2E70A8326C1001383160059
:10106000232661008323C10063E877080328C100B9
:1010700093081800232611018322C10063EE57064E
:10108000032EC100930E1E002326D101032FC100A1
:1010900063E4E707832FC10013871F002326E100C5
:1010A0008326C10063EAD7040323C100930313001E
:1010B000232671000328C10063E007058328C100CF
:1010C0009382180023265100032EC10063E6C70354
:1010D000832EC100138F1E002326E101832FC10040
:1010E00063ECF7010327C100930617002326D10004
:1010F0000323C100E3F267F693851500E390C5DE94
:1011000013010101678000001300000013000000BC
:101110006388050E03C605006304060E83270500D9
:10112000130101FF9386150003C747019372F70F60
:10113000A30751000343F100937303026396030A6C
:1011400003C547019375F50FA307B1000348F100EC
:1011500093780802639A080803CE4701937EFE0F36
:10116000A307D101034FF100937F0F02639E0F0687
:1011700003C747019372F70FA30751000343F10020
:10118000937303026392030603C547019375F50F3A
:10119000A307B1000348F10093780802639608049E
:1011A00003CE4701937EFE0FA307D101034FF10049
:1011B000937F0F02639A0F0203C747019372F70FE1
:1011C000A30751000343F10093730302639E0300DE
:1011D00003C547019375F50FA307B1000348F1005C
:1011E00093780802E38208F4938616002380C700F0
:1011F00003C6F6FFE31A06F213010101678000003F
:1012000067800000130000001300000013000000BE
:10121000630C0602638A0502032705009706000097
:101220009386469A2326B500834747002328C500A6
:10123000232A05002320D50293E22700230257002A
:10124000732340F16304030067800000B723000CA0
:10125000171601001306061783A503003305C540C2
:101260001338150093081000339E0801B36EBE00BA
:1012700023A0D301678000001300000013000000CA
:1012800083270500034795008326050183C2470194
:1012900033E3E200A304650093F3F20F63980600C2
:1012A00013D5630013751500678000001305000057
:1012B000678000001300000013000000130000000E
:1012C0009307050063800518630E061603270500C3
:1012D0000345950083464701B3E2A600A384570067
:1012E00013F3160063000316937336001305000012
:1012F000638C030813081000638003079308200021
:101300006386130303470700130510002380E500DD
:1013100003A7070003CE9700834E470133EFCE01AA
:10132000A384E70193FF1E0063820F128346070028
:10133000B382A500130515002380D20003A7070080
:1013400003C397008343470133E86300A384070185
:1013500093F81300638C080E034E07003387A50033
:10136000130515002300C70103A7070083CE9700CC
:10137000034F4701B36FDF01A384F70193761F008A
:101380006386060C6306A60C83420700B383A500A0
:10139000130515002380530003A8070003CE970010
:1013A0003383A5000347480193080500B36EC701C6
:1013B000A384D701137F1700630A0F08834F080027
:1013C00013051500B382A5002300F30183A30700D2
:1013D00083C6970003C343013368D300A384070186
:1013E000137E130063040E0603C703001385280051
:1013F000B38EA5002380E20003AF070083CF9700E0
:1014000083424F01B3E3F201A384770093F6120005
:10141000638E060203430F001385380023806E009D
:1014200003A7070083C89700034E470133681E01D6
:10143000A3840701937E1E00638A0E00E316A6F4C0
:1014400067800000130500006780000067800000CF
:10145000678000001300000013000000130000006C
:10146000F32740F163960702B726000C1717010017
:10147000130747F503A60600B302E54013B31200B5
:101480009303100033986300B368C80023A01601CB
:10149000370E0100930EFEFF638CD5010325050076
:1014A00093F5F500034F4500B36FBF002302F5012C
:1014B000678000001300000013000000130000000C
:1014C000638E05029307000C63EAC7020327050039
:1014D000232EB5008342870013F3F203B363C300E6
:1014E00093F5F30F2304B7000346470093661600F5
:1014F0002302D700732840F16304080067800000CE
:10150000B728000C971E0100938ECEEB03AE0800A7
:101510003305D541133F1500930F1000B397EF012A
:1015200033E7C70123A0E800678000001300000034
:1015300063840502032705002320B5022326050046
:10154000834747002328050093E227002302570022
:10155000732340F16304030067800000B723000C8D
:1015600097150100938505E683A603003305B54072
:101570001336150013081000B318C80033EED80056
:1015800023A0C301678000001300000013000000C7
:1015900063800502032705002322B5028347470025
:1015A00093E2870023025700732340F16304030092
:1015B00067800000B723000C97150100938585E034
:1015C00083A603003305B540133615001308100039
:1015D000B318C80033EED80023A0C3016780000011
:1015E000638805126306061283270500834695006B
:1015F00003C74701B362D700A30455001373070262
:1016000063080310930300011305060063F4C3008D
:101610001305000103C8050093081000238007018B
:1016200063FAC80E03CE1500930E20002380C70175
:1016300063F2CE0E03CF2500930F30002380E70125
:1016400063FACF0C83C63500130740002380D70010
:101650006372C70C83C245001303500023805700F8
:10166000637AC30A83C355001308600023807700A0
:101670006372C80A83C86500130E700023801701C7
:10168000637ACE0883CE7500130F80002380D701C4
:101690006372CF0883CF8500930690002380F70103
:1016A00063FAC60683C295001307A0002380570083
:1016B0006372C70603C3A5009303B00023806700CD
:1016C00063FAC30403C8B5009308C0002380070170
:1016D00063F2C80403CEC500930ED0002380C70177
:1016E00063FACE0203CFD500930FE0002380E70119
:1016F00063F2CF0283C6E5009302F0002380D70097
:1017000063FAC20083C5F5002380B700678000003C
:1017100013050000678000001300000013000000A4
:10172000832705000347950083C24701A3040500F2
:1017300033E5E2001375E50967800000130000003F
:101740008327050003C587016780000013000000A0
:1017500003270500834795008342470133E3F200E6
:10176000A304650013F50206678000001300000063
:10177000032705008347C70093E2070423065700A9
:101780006780000013000000130000001300000039
:10179000032705008347C70093F2F70B2306570082
:1017A0006780000000000000000000000000000052
:1017B000130101FB23248104032447002322910405
:1017C000232021052320A103232611041308100040
:1017D000032D070093040500130906006306043F68
:1017E00023229103B30C8D0223248103232E310382
:1017F000232A51032328610323267103232EB101D9
:10180000232C4103938D0600138B0700338CC602F3
:1018100093902C00930A870093192400930B0500E2
:10182000B30C1500330DCD02131C2C0013850B00D7
:1018300093070B0013870A0093860D0013060D0013
:101840002326B100EFF0DFF68325C100B38B3B0107
:1018500093070B00338A850113870A0093860D00D6
:1018600013060D0013850B0093050A0063827C119B
:10187000EFF01FF4B38B3B01330A8A0193070B008F
:1018800013870A0093860D0013060D0013850B00C5
:1018900093050A00638E7C0DEFF09FF1B38B3B0143
:1018A000330A8A0193070B0013870A0093860D0001
:1018B00013060D0013850B0093050A00638A7C0B49
:1018C000EFF01FEFB38B3B01330A8A0193070B0044
:1018D00013870A0093860D0013060D0013850B0075
:1018E00093050A0063867C09EFF09FECB38B3B0104
:1018F000330A8A0193070B0013870A0093860D00B1
:1019000013060D0013850B0093050A0063827C0704
:10191000EFF01FEAB38B3B01330A8A0193070B00F8
:1019200013870A0093860D0013060D0013850B0024
:1019300093050A00638E7C03EFF09FE7B38B3B01B6
:10194000330A8A0193070B0013870A0093860D0060
:1019500013060D0013850B0093050A00638A7C01B2
:10196000EFF01FE5B38B3B01B3058A01E3907CEDFB
:10197000B382340183A7040003A70200130EF4FF0F
:101980007B80E70433833201131F1400B3038F00FD
:10199000B30533010325030003A60500931F34009C
:1019A000939D23007B20C504930610008328CB0061
:1019B0003308F0416318D9243388050113791E00D8
:1019C000B3073801138F0400130A000093060000C8
:1019D000130B000063020906032D480083AB480087
:1019E000138F4400130B100093062000130A3000DD
:1019F0007B4E7D052320C80183A3470083AE88006A
:101A00007BD5D30523A0A70003AC450003A3C800E2
:101A10007B666C0423A0C500832A0F00FBB90A046F
:101A2000232E3FFF130EE4FF13084800938747005F
:101A300093854500630C0E1013071B00931C0701D0
:101A400093D00C01930B3A0013992000138D2600BC
:101A5000338B280193160D0113950B01032A4800BF
:101A6000832E0B0093034F0013DC06011353050173
:101A70007B46DA05931A2C002320C800B38958014D
:101A800003A7470083AC09007B599705131D23006A
:101A900023A02701B38BA80103AB450003AA0B00C9
:101AA000FB6E4B0523A0D50183264F007BB50604B2
:101AB0009380100013960001135B0601931A2B000C
:101AC000130C2C001303330023AEA3FE13170C01D9
:101AD000B3835801931B03018329880083AC03005F
:101AE00013894700138D4500130F8F00935607018C
:101AF00013DA0B017BC59905939E26002322A800CB
:101B0000B380D8010326490083AA00007B5C5605F8
:101B100013132A0023A28701B383680083294D0091
:101B200083AC03007BE9990523A22501032D0F0057
:101B30007B370D04232EEFFE130EEEFF13088800F3
:101B40009387870093858500E3180EEE1304E4FF66
:101B500093182400930500007BCFB504338E120147
:101B60002322EE017BD8B504B38FF401B3871F01A4
:101B700023A207017BEBB504B384B401B38D140138
:101B800023A26D017BBA05048320C10403248104D0
:101B900023AE42FF8329C103032A8103832A410321
:101BA000032B0103832BC102032C8102832C4102EE
:101BB000832DC1018324410403290104032D010263
:101BC000130101056780000093122600B3865500BB
:101BD00003A5050083AE0600FB00D50323A0140077
:101BE0007B1600028320C1040324810423A2C400C5
:101BF0000329010483244104032D0102130101057B
:101C000067800000931E090113D90E01131B1900F0
:101C1000B30A690133880501931C0B01139C0A0167
:101C200093701E0013DD0C01935B0C01B3073801A8
:101C3000138F0400930E000093060000930300002E
:101C400063840008131E2900B389C8011317090112
:101C500013150D0113960B01032A480003A3090075
:101C6000138F44009353070193560501935E0601B9
:101C70007B4B6A04939A260023206801B3805801A5
:101C800083AC470003AC0000FBD98C05139E2E00EB
:101C900023A03701338AC80103A3450003270A00A4
:101CA0007B65E30423A0A50003260F007B3B06040D
:101CB000232E6FFF130EE4FF13084800938747009D
:101CC00093854500E3040EE8B3037900939A03017A
:101CD00093D00A01939C2000B306DD00B38EDB0194
:101CE000338C98011397060113960E0103234800C5
:101CF00083290C00130A4F0013550701135B0601DB
:101D0000FB433305931A250023207800B38C580138
:101D100083A6470083AE0C007BDCD60513132B0093
:101D200023A08701B389680003A7450003A6090023
:101D3000FB63C70423A07500832A4F00FBBC0A0481
:101D4000B30019009396000193D30601939E2300DC
:101D50003305AD00338B6B01232E9AFF93190501D8
:101D6000338AD80113170B01032C880003230A00C0
:101D700013864700938A4500130F8F0093D60901FD
:101D8000935E0701FB4C6C0493902600232298017C
:101D900033851800032B4600032A05007B5C4B05A6
:101DA00013932E0023A287013386680083AA4A007A
:101DB000832906007BE73A0523A2E500832C0F0068
:101DC000FBB00C04232E1FFE130EEEFF1308880039
:101DD0009387870093858500E3180EEE6FF01FD779
:101DE000130101FD2322910283A446002320210335
:101DF000232E310123248101232611029307100091
:101E000003AC060013090500938905006380F43CC8
:101E1000232A5101B30A9C0223248102232C41016D
:101E20002328610123267101232291012320A1018E
:101E3000930B0600130B0700138A860093902A0069
:101E4000931C260013942400130D0500B30A1500FB
:101E50009385090013050D0093070B0013070A0073
:101E600093860B0013060C00EFF09F94330D8D004A
:101E7000B389990193070B0013070A0093860B009F
:101E800013060C0013050D00938509006382AA1147
:101E9000EFF01F92330D8D00B389990193070B006A
:101EA00013070A0093860B0013060C0013050D00A0
:101EB00093850900638EAA0DEFF09F8F330D8D007F
:101EC000B389990193070B0013070A0093860B004F
:101ED00013060C0013050D0093850900638AAA0BF5
:101EE000EFF01F8D330D8D00B389990193070B001F
:101EF00013070A0093860B0013060C0013050D0050
:101F0000938509006386AA09EFF09F8A330D8D003F
:101F1000B389990193070B0013070A0093860B00FE
:101F200013060C0013050D00938509006382AA07B0
:101F3000EFF01F88330D8D00B389990193070B00D3
:101F400013070A0093860B0013060C0013050D00FF
:101F500093850900638EAA03EFF09F85330D8D00F2
:101F6000B389990193070B0013070A0093860B00AE
:101F700013060C0013050D0093850900638AAA015E
:101F8000330D8D00EFF0DF82B3899901E392AAED62
:101F9000330F89008322090003270F001383F4FF06
:101FA0007B80E204B3038F00139E140033059E0070
:101FB0003386830083A5030083260600939E3400A6
:101FC000131C25007BA0D504330ED641937F13004C
:101FD000832BCB0033088E0093080900130A0000FE
:101FE0009307000063800F06032B4E0003A34B00F2
:101FF0009308490093071000130A3000FB4C6B0450
:1020000023209E010324480083A08B00FB5A140464
:1020100023205801032D460083A9CB00FB623D0518
:102020002320560003A70800FB33070423AE78FEE5
:102030001383E4FF130E4E001308480013064600F6
:10204000630C0310138517009315050113DB0501BD
:1020500093073A0093162B00338ADB009390070115
:10206000832F4E00832C0A001384480093DA00016A
:102070007BCD9F0593191B009392090113D7020191
:10208000931327002320AE0133857B00832548006E
:1020900083260500FBD7D504139A2A002320F800D5
:1020A000B38F4B01832C460083A00F007BED1C04F3
:1020B0002320A60183A94800FBB20904130B1B00CF
:1020C00013170B0193570701232E54FE93932700F8
:1020D00013843A0093160401B38A7B0003258E0013
:1020E00083A50A00930C480093004600938888005B
:1020F00013DA0601FB4FB504139D170093190D0168
:1021000093D20901139B22002322FE0133876B0126
:1021100083A34C0003240700FBDA830413152A0071
:1021200023225801B385AB0083AC400083A0050097
:10213000FBE61C042322D60083AF08007BBD0F04FE
:1021400023AEA8FF1303E3FF130E8E0013088800CD
:1021500013068600E31803EE9384E4FF939B2400A8
:10216000FB486304330E7F0123221E017B58630466
:10217000B30ED90133867E0123220601FB67630477
:1021800033098901330C79012322FC007B330304DA
:10219000032481028320C102232E6FFE032A8101C2
:1021A000832A4101032B0101832BC100832C4100B1
:1021B000032D010083244102032901028329C10167
:1021C000032C8100130101036780000003AF0500A9
:1021D00083A94500FB023F03232055007B17000223
:1021E0008320C1022322E500832441020329010246
:1021F0008329C101032C81001301010367800000C2
:102200001355054167800000130000001300000013
:1022100013150501135505416780000013000000E8
:10222000130101FE232C810093073500232E11009A
:102230001304050013952700638006066302060455
:1022400083A0060063EEA00223A0A60013050600EB
:102250008320C101232085000324810197120100FE
:1022600083A2C283171301000323C3832322B50073
:102270002326550023246500130101026780000016
:1022800023A0A600130500008320C10103248101BF
:1022900013010102678000002326B100EF10C05730
:1022A0008325C100E31605FA130500006FF0DFFD7A
:1022B000130101FE232C810023263101232E11005E
:1022C00013040500938906006384C50283268400F5
:1022D00013070400032481018320C10113050600B4
:1022E000138609008329C100130101026FF05FAF5B
:1022F000232A9100938405006382050603250500C7
:102300002328210113152500EF10005113090500A2
:102310006308050A83268400130704001386090056
:1023200093850400EFF0DFAB03260400930509005A
:102330001385040013162600EF20907103248101F9
:10234000832441018320C1018329C10013050900B1
:1023500003290101130101026F10C04C970901000C
:1023600083A9097483A00900130670019305100066
:1023700083A6C0001705010013054581EF20402109
:1023800083A30900930510001306100183A6C30060
:102390001705010013050581EF20801F83A50900A3
:1023A000832441011305A00083A5C50003248101F6
:1023B0008320C1018329C100130101026F10507EE7
:1023C000170401000324C46D832704001306700161
:1023D0009305100083A6C70017F500001305C57DFF
:1023E000EF20001B832204009305100013068001D8
:1023F00083A6C20017F500001305857DEF20401964
:102400000323040083244101032901018325C30020
:102410001305A0006FF09FF91300000013000000E7
:10242000130101FD23248102232291022320210391
:1024300023261102138905001304060093040500E6
:10244000638EC53823286101032B8500232E3101BB
:102450002324810183294B0093071000032C0B00D8
:10246000638CF97423267101B30B3C03232C4101C7
:10247000232A5101130B8B00939A2900130A06009B
:1024800093902B00B30B160013050A0093870400EA
:1024900013070B009306100013060C0093050900A8
:1024A000EFF00FB1330A5A019387040013070B00B2
:1024B0009306100013060C0013050A00930549004B
:1024C00063864B0FEFF0CFAE330A5A0193870400B7
:1024D00013070B009306100013060C0013050A00E7
:1024E0009305890063844B0DEFF08FAC330A5A01DA
:1024F0009387040013070B009306100013060C00CB
:1025000013050A009305C90063824B0BEFF04FAA35
:10251000330A5A019387040013070B009306100037
:1025200013060C0013050A009305090163804B098B
:10253000EFF00FA8330A5A019387040013070B002A
:102540009306100013060C0013050A0093054901B9
:10255000638E4B05EFF0CFA5330A5A019387040031
:1025600013070B009306100013060C0013050A0056
:1025700093058901638C4B03EFF08FA3330A5A0153
:102580009387040013070B009306100013060C003A
:1025900013050A009305C901638A4B01330A5A01E6
:1025A000EFF00FA113090902E3904BEF330F540131
:1025B0008322040003270F001383F9FF7B80E204CA
:1025C000B3035F01139E190033053E0133865301A7
:1025D00083A5030083260600939E3900131C250063
:1025E0007BA0D504B305D641937F130083A8C40014
:1025F0003385550113080400130B000093070000F6
:1026000063800F0683A4450003A348001308440019
:1026100093071000130B3000FBC0640423A01500C7
:10262000832B450003AA88007BD94B052320250175
:102630008322460003A7C800FBE3E20423207600C0
:10264000032E0800FB360E04232ED8FE1383E9FF69
:10265000938545001305450013064600630C0310DF
:10266000938F170093940F0193D704019390270041
:10267000130B3B00B38B180013170B0103AA450083
:1026800003A90B0093024800935307017B4E2A05D0
:1026900093961700939F060193D40F019390240003
:1026A00023A0C501338B1800832B4500032A0B00A0
:1026B0007BD94B051397230023202501338EE80097
:1026C00083264600832F0E00FBE4F60523209600A8
:1026D000832048007BBB000493871700939B07016E
:1026E00093D70B0113893300139A270023AE62FF9F
:1026F00013170901B382480103AE850083A60200C7
:10270000930345009304460013088800135B0701F8
:10271000FB4FDE0493901700939B000113DA0B012B
:1027200013192A0023A2F501B382280103AE430046
:1027300083A60200FB53DE0413172B00232275002F
:10274000B38FE80083A4440083A00F00FBEB1404C4
:1027500023227601032A08007B390A04232E28FF4E
:102760001303E3FF93858500130585001306860098
:10277000E31803EE9389E9FF939829007B486304EB
:1027800033041401B30A540123A20A01FB55630464
:10279000B30ED40123A2BE007B656304330C840115
:1027A0002322AC007B330304032A8101832A4101E5
:1027B000832BC100232E6FFE8320C10203248102DC
:1027C0008329C101032B0101032C810083244102D1
:1027D000032901021301010367800000638A054099
:1027E00083220500232A5101232E3101939A2200CE
:1027F00013850A00EF10400293090500630C05449D
:1028000003AE8400232C410123229101032A4E00B0
:102810002326710193061000832C0E00630CDA3A14
:10282000B3834C032328610123248101930B8E0081
:10283000931A2A00130B050013972300330CE500AD
:1028400013050B009387040013870B0093061000F9
:1028500013860C0093050900EFE09FF5330B5B0135
:102860009387040013870B009306100013860C0057
:1028700013050B009305490063066C0FEFE05FF34F
:10288000330B5B019387040013870B009306100042
:1028900013860C0013050B009305890063046C0D6F
:1028A000EFE01FF1330B5B019387040013870B00EC
:1028B0009306100013860C0013050B009305C90046
:1028C00063026C0BEFE0DFEE330B5B0193870400D8
:1028D00013870B009306100013860C0013050B00E2
:1028E0009305090163006C09EFE09FEC330B5B017A
:1028F0009387040013870B009306100013860C00C7
:1029000013050B0093054901630E6C05EFE05FEAC8
:10291000330B5B019387040013870B0093061000B1
:1029200013860C0013050B0093058901630C6C03DF
:10293000EFE01FE8330B5B019387040013870B0064
:102940009306100013860C0013050B009305C901B4
:10295000630A6C01330B5B01EFE09FE51309090289
:10296000E3106CEFB38F590183A0090003A90F0096
:10297000130EFAFF7B802005B3885F0113181A003D
:10298000B30548013388580103A508000323080054
:10299000131F3A00939E25007B206504B308E8418D
:1029A00013761E00B385580183ACC400938B0900D5
:1029B00093060000930A00006300060683A7480000
:1029C00083A24C00938B4900930A100093063000B9
:1029D0007BCE570423A0C80183A3450003A78C0026
:1029E0007BDCE30423A08501032B480083A0CC00FB
:1029F0007B691B042320280103A50B007B330504FE
:102A000023AE6BFE130EEAFF9388480093854500C2
:102A100013084800630C0E1013861A009317060162
:102A200093DA070193922A0093863600B3835C0001
:102A30009390060103A7480003AC0300138B4B00DF
:102A400013D900017B45870513931A001316030160
:102A5000935706019392270023A0A800B3865C0039
:102A600083A3450003A706007BDCE3049310290041
:102A700023A0850133851C0003234800032605009D
:102A8000FB67C3042320F80083A24B00FBB60204BB
:102A9000938A1A0093930A0193DA0301232EDBFE33
:102AA00013972A00130B390013160B013389EC001E
:102AB00003AC8800832009001385450013034800F8
:102AC000938B8B0093560601FB471C0493921A00CC
:102AD0009393020113D70301131B270023A2F800CD
:102AE00033896C01032C4500832009007B551C04AD
:102AF0001396260023A2A500B382CC000323430033
:102B000083A70200FB63F3042322780003A70B00D2
:102B10007B3B070423AE6BFF130EEEFF9388880008
:102B20009385850013088800E3180EEE130AEAFF68
:102B3000931C2A00FB4BCE05B3889F0123A278018A
:102B4000FB55CE05338FE90133089F012322B800DE
:102B5000FB66CE05B38ED901B38A9E0123A2DA00AB
:102B60007B3E0E0483A40400032B0101032C81008F
:102B700023AECFFF939A240013860A0093850900A1
:102B800013050400EF20C06C03248102032A810195
:102B9000832A4101832BC100832C41008320C10281
:102BA0008324410203290102138509008329C101FD
:102BB000130101036F00104703AF050003A6450092
:102BC0007B0BCF0223206401FB1700022322F400B9
:102BD0006FF09FBE832F040003294400FB802F0366
:102BE000232015007B15000223A2A9006FF0DFF857
:102BF0009704010083A4C4EA03A304001306700130
:102C0000930510008326C30017F50000130505F88F
:102C1000EF10101883A7040093051000130610018D
:102C200083A6C70017F500001305C5F7EF1050166F
:102C300083A304001305A00083A5C300032481021D
:102C40008320C102832441020329010213010103ED
:102C50006F10007517040100032484E48329040025
:102C6000130670019305100083A6C90017F5000034
:102C7000130585F4EF10D0118322040013068001A0
:102C80009305100083A6C20017F50000130545F454
:102C9000EF101010032604008329C101832A41018B
:102CA0008325C6001305A0006FF05FF91300000034
:102CB00067800000130000001300000013000000F4
:102CC0009377150093063000130750001308100087
:102CD000639407189307050013D6F701B302F600B3
:102CE00093D7124013D3F70193F51700B303F30002
:102CF0006394050893D7134093D8F70193FE170008
:102D0000338EF800639A0E0693571E4013DFF701C7
:102D100013F61700B30FFF006310060693D71F408A
:102D200093D2F70193F317003383F2006396030401
:102D30009357134093D5F70113FE1700B388F5009E
:102D4000631C0E0293D7184093DEF70193FF170020
:102D5000338FFE0063920F0293571F4013D6F70183
:102D600013F31700B302F6006318030093D7124061
:102D700093F31700E38203F6B3E5D70263920506E7
:102D8000B3C7D702B3E8D702639C0804B3C7D7021E
:102D900033EED70263160E04B3C7D702B3EED702E1
:102DA00063900E04B3C7D70233EFD702631A0F0242
:102DB000B3C7D702B3EFD70263940F02B3C7D702EA
:102DC00033E6D702631E0600B3C7D702B3E2D702C9
:102DD00063980200B3C7D70233E3D702E30203FAD2
:102DE000B3E3E70263920306B3C7E702B3E5E70282
:102DF000639C0504B3C7E702B3E8E70263960804DF
:102E0000B3C7E70233EEE70263100E04B3C7E7026D
:102E1000B3EEE702639A0E02B3C7E70233EFE702AD
:102E200063140F02B3C7E702B3EFE702639E0F001C
:102E3000B3C7E70233E6E70263180600B3C7E70249
:102E4000B3E2E702E38202FA635CF80013051500BF
:102E500093771500E38007E8930705006FF0DFF133
:102E60006780000000000000000000001308000060
:102E700063C6051263DC0600B337C000B306D0405A
:102E80001348F8FFB386F6403306C04093080600A7
:102E90001307050013830500639A060E63F4C51635
:102EA000B70701006364F622B707000193068001AB
:102EB0006374F60093060001B7270180335ED600E5
:102EC000938787BEB387C70183C70700130E00022D
:102ED000B387D700B306FE40630CFE003393D500E2
:102EE000B357F500B318D60033E367003317D500A6
:102EF00013D608013355C3029396080193D60601F1
:102F0000935707013373C302B385A602131303015A
:102F1000B3E7670063FCB700B387F8001303F5FF5E
:102F200063E4170163E6B74013050300B387B740B6
:102F3000B3D5C7021317070113570701B3F7C70229
:102F4000B386B602939707013367F700637ED70015
:102F50003387E8009387F5FF636617019385E5FFE4
:102F60006364D70093850700131505013365B50029
:102F700093050000630A0800B337A000B305B04012
:102F8000B385F5403305A0406780000063F4D502A7
:102F900093050000130500006FF0DFFDB337A000BC
:102FA000B305B040B385F5403305A0401308F0FFEA
:102FB0006FF05FECB707010063E8F61EB70700018A
:102FC0009308800163F4F60093080001B72701809D
:102FD00033D71601938787BEB387E70003C707007F
:102FE0009307000233071701B388E7406396E71C95
:102FF00063E4B6303335C500133515009305000082
:103000006FF05FF7630C060CB7070100637CF62CCA
:10301000133306101333130013133300B356660033
:10302000B7270180938787BEB387D70083C6070081
:1030300093070002B3866600B38ED7406394D70C23
:10304000B386C54013530601131606011356060135
:103050009305100033D5660293570701B3F6660255
:10306000330EC50293960601B3E7D70063FCC70190
:10307000B387F8009306F5FF63E4170163E4C72BF9
:1030800013850600B387C741B3D66702131707013C
:1030900013570701B3F767023386C60293970701F8
:1030A0003367F700637EC7003387E8009387F6FF36
:1030B000636617019386E6FF6364C7009386070083
:1030C000131505013365D5006FF0DFEA933606105E
:1030D00093B61600939636006FF01FDEB727018077
:1030E00093060000938787BEB387D70083C6070087
:1030F0001303000093070002B3866600B38ED74027
:10310000E380D7F4B318D60133DED50013D308011A
:10311000B3576E021396080113560601B356D50035
:103120003317D501B395D501B3E6B60093D50601A3
:10313000337E6E023305F602131E0E01B3E5C501A0
:1031400063FEA500B385B800138EF7FF63E4151D79
:1031500063F2A51C9387E7FFB3851501B385A540EE
:1031600033D565029396060193D60601B3F5650241
:10317000330EA60293950501B3E6B60063FEC601C1
:10318000B386D8009305F5FF63EE161763FCC617E8
:103190001305E5FFB386160193950701B386C64173
:1031A000B3E5A5006FF01FEB93B8061093B81800B5
:1031B000939838006FF09FE1B35EE600B396160176
:1031C000B3EEDE0033D3E50013DF0E01B357E303A4
:1031D000139E0E01B3951501135E0E013357E500E2
:1031E0003367B70093560701331616013373E303B1
:1031F000B305FE0213130301B3E6660063FEB600D7
:10320000B386DE001383F7FF63EAD61163F8B610C6
:103210009387E7FFB386D601B386B640B3D5E603FE
:103220001317070113570701B3F6E6033303BE0272
:10323000939606013367D700637E67003387EE00FD
:103240009386F5FF6364D70D6372670C9385E5FF82
:103250003307D70193970701370F0100B3E7B70092
:103260009306FFFFB3F5D70013DE0701B376D60050
:1032700013560601B38ED50233076740B306DE024C
:1032800013D30E01B385C502B385D500B305B300D2
:10329000330ECE0263F4D500330EEE0193D6050152
:1032A000B386C601636AD7026308D7001385070097
:1032B000930500006FF01FCCB70601009386F6FF60
:1032C00033F7D50013170701B3FEDE0033151501E0
:1032D0003307D701E37CE5FC1385F7FF9305000076
:1032E0006FF05FC9B7070001637AF60493560601D1
:1032F000130300016FF0DFD29305000013051000E7
:103300006FF05FC7138505006FF01FE99385060016
:103310006FF05FF493070E006FF05FE49307030014
:103320006FF09FEF1305E5FFB38717016FF09FD58F
:103330001305E5FFB38717016FF05FBF9356860152
:10334000130380016FF0DFCD13080600930805001A
:10335000138705006390060E63FEC512B7070100D0
:10336000636EF61EB7070001930680016374F600D2
:1033700093060001B72701803353D600938787BE99
:10338000B387670083C7070013030002B387D70022
:10339000B306F340630CF3003397D500B357F50041
:1033A0003318D60033E7E700B318D50013560801E9
:1033B0003355C7029316080193D6060193D7080127
:1033C0003377C702B385A60213170701B3E7E700F7
:1033D00063FCB700B307F8001307F5FF63E40701C8
:1033E00063E0B73E13050700B387B74033D7C70282
:1033F0009398080193D80801B3F7C702B386E60291
:1034000093970701B3E8F80063FED800B3081801EA
:103410009307F7FF63E608011307E7FF63E4D800AB
:1034200013870700131505013365E50093050000B8
:103430006780000063F8D5009305000013050000C5
:1034400067800000B707010063E8F61EB7070001B8
:103450001308800163F4F60013080001B727018008
:1034600033D70601938787BEB387E70003C70700FA
:1034700093070002330707013388E7406396E71C90
:1034800063E4B6303335C5001335150093050000ED
:1034900067800000630C060CB7070100637CF62C04
:1034A000133706101337170013173700B356E6000B
:1034B000B7270180938787BEB387D70083C70700EC
:1034C00093060002B387E700B38EF6406394F60CD0
:1034D000B387C5409356060113160601135606011D
:1034E0009305100033D5D70213D70801B3F7D702DD
:1034F0003303C50293970701B367F70063FC6700C6
:10350000B307F8001307F5FF63E4070163E4672AD4
:1035100013050700B387674033D7D7029398080194
:1035200093D80801B3F7D7023306C7029397070170
:10353000B3E8F80063FEC800B30818019307F7FF6B
:1035400063E608011307E7FF63E4C8001387070079
:10355000131505013365E5006780000093360610FA
:1035600093B61600939636006FF0DFE0B727018020
:1035700093060000938787BEB387D70083C70700F1
:103580001307000093060002B387E700B38EF640EE
:10359000E380F6F43318D60133D3F50093560801CF
:1035A000335ED30213160801B395D50113560601F5
:1035B000B357F500B3E7B70013D70701B318D50128
:1035C0003373D302B305C6031313030133676700D4
:1035D000637EB7003307E8001305FEFF6364071D31
:1035E0006372B71C130EEEFF330707013307B740B2
:1035F0003355D7029397070193D707013377D70243
:103600003303A60213170701B3E7E70063FE670061
:10361000B307F8001307F5FF63EE071763FC67169F
:103620001305E5FFB387070193150E01B3876740C4
:10363000B3E5A5006FF01FEB13B8061013381800A0
:10364000131838006FF09FE1335EE600B396060171
:10365000336EDE00B3D8E500935E0E01B3D7D80316
:1036600013130E01B3950501135303013357E500FE
:103670003367B7009356070133160601B3F8D80332
:10368000B305F30293980801B3E6160163FEB60092
:10369000B306DE009388F7FF63EAC61163F8B6103D
:1036A0009387E7FFB386C601B386B640B3D5D6038A
:1036B0001317070113570701B3F6D603B308B30274
:1036C000939606013367D700637E17013307EE0038
:1036D0009386F5FF6364C70D6372170D9385E5FF4D
:1036E0003307C70193970701B70E0100B3E7B7008F
:1036F0009386FEFFB3F5D70013D30701B376D60048
:1037000013560601338ED50233071741B306D30291
:1037100093580E01B385C502B385D500B385B800B3
:103720003303C30263F4D5003303D30193D60501F9
:10373000B3866600636AD7026308D7001385070063
:103740009305000067800000B70601009386F6FF2E
:1037500033F7D50013170701337EDE00331505015B
:103760003307C701E37CE5FC1385F7FF93050000F1
:1037700067800000B7070001637AF60493560601DC
:10378000130700016FF0DFD293050000130510004E
:1037900067800000130507006FF01FE9938506009E
:1037A0006FF05FF4130E05006FF05FE4938708007D
:1037B0006FF09FEF1305E5FFB38707016FF09FD50B
:1037C0001305E5FFB38707016FF01FC2935686010B
:1037D000130780016FF0DFCD93050500930600000D
:1037E00013060000130500006F109049130101FF3C
:1037F00093050000232481002326110013040500F3
:10380000EF10905183A781F563840700E7800700DC
:1038100013050400EFC0DFF69305050003A541F48E
:103820006F0000019305050003A541F46F1090752A
:10383000130101FD232E31012326110223248102CD
:1038400023229102232021039387B50013076001EF
:10385000930905006360F7089307000163E0B72050
:10386000EF00007893078001930520009304000186
:1038700013898182B307F90003A44700138787FFE8
:103880006300E434832744008326C40003268400B5
:1038900093F7C7FFB307F40003A747002326D6001A
:1038A00023A4C600136717001385090023A2E700AD
:1038B000EF004073130584008320C10203248102BA
:1038C00083244102032901028329C1011301010359
:1038D0006780000093F487FF63C2071863E0B418A1
:1038E000EF0000709307701F63F6973E93D7940024
:1038F000638E071613074000636CF73293D764009A
:103900009385970313888703139635001389818263
:103910003306C90003244600130686FF63088602A7
:103920001305F0006F0040018326C400635607288A
:10393000630ED600138406008327440093F7C7FF65
:1039400033879740E352E5FE9305080003240901FD
:1039500093088900630E1425832744009306F00022
:1039600093F7C7FF3387974063CCE636232A1901C4
:1039700023281901635007341307F01F032549005A
:103980006368F72413F787FF130787003307E900FD
:103990008326070013D6570093071000B397C7007C
:1039A0003365F500930787FF2326F4002324D40012
:1039B0002322A9002320870023A6860093D7254031
:1039C000130610003316F600636AC50AB377A60023
:1039D000639407021316160093F5C5FFB377A6008C
:1039E00093854500639A070013161600B377A60067
:1039F00093854500E38A07FE1308F0001393350012
:103A000033036900130503008327C500138E0500E7
:103A10006302F52403A747001384070083A7C700A8
:103A20001377C7FFB30697406342D824E3C206FE6C
:103A30003307E4008326470003268400138509002A
:103A400093E616002322D7002326F60023A4C700FE
:103A5000EF004059130584006FF01FE69307C00084
:103A600023A0F900130500006FF01FE513060020E6
:103A7000930500041308F0036FF05FE90324890045
:103A8000232861018327440013FBC7FF63689B0061
:103A900033079B409307F00063CAE70C2322910190
:103AA000232A510103A7C1F383AA41F5232C410125
:103AB000232671019307F0FF330A6401B38A54018E
:103AC0006306F73CB71700009387F700B38AFA0044
:103AD000B7F7FFFFB3FAFA0093850A0013850900D0
:103AE000EF10804D9307F0FF930B0500630AF54438
:103AF00023248101636E4523138C81F683250C00FA
:103B0000B385BA002320BC00138705006316AA2AD8
:103B1000931745016392072A832B8900B3075B0142
:103B200093E7170023A2FB0083A601F563F4B60018
:103B300023A8B1F483A6C1F463F4B60023A6B1F4BC
:103B4000032C810013840B0093F7C7FF3387974042
:103B500063EA97389307F00063D6E738032A8101B8
:103B6000832A4101832BC100832C410093E7140079
:103B70002322F400B3049400232499001367170050
:103B80001385090023A2E400EF00C0458320C10291
:103B90001305840003248102032B010183244102C5
:103BA000032901028329C101130101036780000079
:103BB000032549006FF09FE0032684006FF09FCD3E
:103BC00003A4C70093852500E38287D86FF09FCBBD
:103BD00013D797009306400063F2E6149306400162
:103BE00063E4E6321306C7059306B70513163600DD
:103BF0003306C90003270600130686FF6318E60094
:103C00006F004029032787006308E60083264700EA
:103C100093F6C6FFE3E8D7FE0326C7002326C400B9
:103C20002324E40023248600232687006FF01FD975
:103C3000130740016378F710130740056364F72EFC
:103C400093D7C4009385F7061388E70613963500CB
:103C50006FF0DFCB130E1E0093773E001305850037
:103C6000638007108327C5006FF09FDA0326840066
:103C700093E514002322B4002326F60023A4C700F2
:103C8000B3049400232A99002328990093E716008F
:103C900023A6140123A4140123A2F4003307E40093
:103CA000138509002320D700EF00C03313058400DB
:103CB0006FF09FC0B307F40003A747001385090006
:103CC0001367170023A2E700EF00C031130584003B
:103CD0006FF09FBE93D53400938784006FF05FB977
:103CE00093E614002322D400B3049400232A9900FD
:103CF000232899009366170023A6140123A4140116
:103D000023A2D400B307F4001385090023A0E70021
:103D1000EF00402D130584006FF01FBA13D7670022
:103D20001306970393068703131636006FF05FECB4
:103D3000630C240703248900032C8100832744009B
:103D40006FF09FE09385C7051388B705139635007C
:103D50006FF0DFBB832783009385F5FF639E6726A3
:103D600093F73500130383FFE39607FE032749000B
:103D70009347F6FFB3F7E7002322F9001316160066
:103D8000E3EEC7CEE30C06CE3377F600631A0700E6
:103D9000131616003377F600130E4E00E30A07FEE3
:103DA00093050E006FF09FC5138C81F603270C005E
:103DB0003387EA002320EC0083A6C1F39307F0FFCA
:103DC0006386F618B3874B41B387E7002320FC00D6
:103DD00093FC7B00638C0C0CB38B9B41B7170000EA
:103DE00093878700938B8B00B3859741B38A5B01E0
:103DF000B38555419395450113DA450193050A00B2
:103E000013850900EF10401B9307F0FF6300F518BE
:103E100033057541B30A450103270C0023247901BA
:103E200093E71A00B305EA002320BC0023A2FB009D
:103E3000E30C24CF9306F00063F0660B03274400E5
:103E400093074BFF93F787FF137717003367F7004C
:103E50002322E400130650003307F4002322C70096
:103E60002324C70063E6F60083A74B006FF0DFCB87
:103E70009305840013850900EF10D010832B89006F
:103E800083250C0083A74B006FF01FCA938A0A0199
:103E90006FF09FC493D6264093071000B397D700C6
:103EA0003365F5002322A9006FF05FD7B3855B016E
:103EB000B305B0409395450113DA450193050A0017
:103EC00013850900EF10400F9307F0FFE312F5F49C
:103ED000130A00006FF05FF4032C810093071000B9
:103EE00023A2FB0013850900EF00C00F130500009B
:103EF000032A8101832A4101032B0101832BC10085
:103F0000832C41006FF05F9B9306400563E4E60459
:103F100013D7C7001306F7069306E70613163600F5
:103F20006FF01FCD130740156364F70493D7F400B7
:103F30009385870713887707139635006FF01F9DC9
:103F400003248900832744006FF01FC023AE71F360
:103F50006FF01FE89306401563E4E60413D7F700FB
:103F60001306870793067707131636006FF05FC8AE
:103F7000130740556364F70493D724019385D7074B
:103F80001388C707139635006FF05F98938C8CFFEA
:103F9000B38A9A01B38A7A41130A00006FF0DFE70F
:103FA0009306405563E4E60213D727011306D707AB
:103FB0009306C707131636006FF09FC31306803FA2
:103FC0009305F0071308E0076FF05F941306803F36
:103FD0009306E0076FF0DFC1832749006FF01FDA17
:103FE0006780000067800000130500006780000004
:103FF000B7950080138601C3938545B6138501C428
:104000006F000041130101FF832545002324810037
:104010002322910023261100138401F99304050043
:1040200063848500EF40103483A5840093078406E1
:104030006386F50013850400EF40D03283A5C400E9
:104040001304040D638E8500032481008320C100C6
:104050001385040083244100130101016F40903057
:104060008320C10003248100832441001301010146
:10407000678000001305000067800000130101FE47
:10408000232C8100B7470080138401F9938707FF31
:10409000232E1100232A91002328210123263101F8
:1040A0002324410123ACF1F4130680009307400060
:1040B000930500001305C4052326F4002320040003
:1040C00023220400232404002322040623280400BE
:1040D000232A0400232C0400EF10C009B7070100B5
:1040E000375A0080B759008037590080B754008094
:1040F000130ACA8F938909961309899E938404A68B
:104100009387970013068000930500001305440C65
:10411000232044032322340323242403232694024C
:10412000232AF406232E84002324040623260406CF
:10413000232804062326040C232C0406232E04061D
:1041400023200408EF100003B707020013078406BA
:10415000938727011305C4121306800093050000FE
:10416000232444092326340923282409232A9408D4
:10417000232EF40C2322E4082328040C232A040C05
:10418000232C040C232A04122320040E2322040EC1
:104190002324040EEF00107E9307040D2328440F00
:1041A000232A340F232C240F232E940E8320C101A5
:1041B0002326F40E032481018324410103290101F4
:1041C0008329C100032A81001301010267800000D6
:1041D00083A781F5130101FE23263101232E11004F
:1041E000232C8100232A9100232821019309050013
:1041F0006386070E138901C39304F0FF83274900E8
:10420000032489009387F7FF63D807006F00000835
:1042100013048406638C97060317C4009387F7FF83
:10422000E31807FEB707FFFF938717002326F40064
:104230002322040623200400232404002322040054
:1042400023280400232A0400232C040013068000E2
:10425000930500001305C405EF00D0712328040264
:10426000232A040223220404232404048320C101FA
:104270001305040003248101832441010329010162
:104280008329C10013010102678000000324090093
:1042900063060400130904006FF05FF69305C01A6B
:1042A00013850900EFF0CFD813040500630C050255
:1042B0001305C50093074000232004002322F400C7
:1042C0002324A4001306001A93050000EF00906A4F
:1042D00023208900130904006FF05FF2EFF01FDA6A
:1042E0006FF05FF1232009009307C00023A0F900BD
:1042F0006FF0DFF7832745036384070067800000C2
:1043000003A781F5B747008093874700232AF5026A
:10431000E31607FE6FF09FD66780000067800000FD
:10432000B7450080138601C3938585FE1305000001
:104330006F00000EB7450080138601C393854507C3
:10434000130500006F00C00C130101FE232C810037
:10435000232E11001304050063060500832745037F
:10436000638C070013050400032481018320C1012D
:10437000130101026F0080372326C1002324B100FE
:10438000EFF05FF713050400032481010326C10049
:10439000832581008320C101130101026F000035D4
:1043A000130101FE232A910083A441F4232C8100F0
:1043B000232E1100130405001386050063860400F4
:1043C00083A744036380070293050400032481014B
:1043D0008320C101138504008324410113010102DC
:1043E0006F00C030138504002326B100EFF09FF06A
:1043F00093050400032481010326C1008320C10129
:104400001385040083244101130101026F00002E73
:10441000130101FD23202103232E3101232C41010F
:10442000232A510123286101232671012326110229
:104430002324810223229102130B0500938B050094
:10444000930A0600130A0000930910001309F0FFF5
:1044500083A44A0003A48A009384F4FF63C804027F
:104460008357C40063FEF9008317E400930504003A
:1044700013050B0063862701E7800B00336AAA004F
:104480009384F4FF13048406E39C24FD83AA0A00AA
:10449000E3900AFC8320C1020324810283244102A9
:1044A000032901028329C101832A4101032B010150
:1044B000832BC10013050A00032A810113010103A4
:1044C00067800000130101FB232021053389C60208
:1044D0009307C1012322F1029307100023248104D2
:1044E00023229104232E3103232EB100232611040D
:1044F0002324F1022320210323262103930906000C
:104500001384060093040500930507006306050065
:1045100083274503638607068397C5001397270102
:104520006342070203A74506B7E6FFFF9386F6FF3F
:1045300037260000B3E7C7003377D7002396F5008E
:1045400023A2E5061306410213850400EF4050251F
:10455000630805008327C1023309F9403354390346
:104560008320C1041305040003248104832441042F
:10457000032901048329C103130101056780000099
:104580002326E100EFF01FD78325C1006FF0DFF88D
:10459000130101FB23229104B384C502232E3103AE
:1045A00083A941F49307C1012322F102930710006C
:1045B000232481042320210523261104232EA10076
:1045C0002324F1022320910223269102138905005E
:1045D00013040600938506006386090083A7490338
:1045E000638607068397C500139727016342070276
:1045F00003A74506B7E6FFFF9386F6FF37260000C0
:10460000B3E7C7003377D7002396F50023A2E5066A
:104610001306410213850900EF4090186308050056
:104620008327C102B384F44033D424038320C1041C
:104630001305040003248104832441040329010495
:104640008329C10313010105678000001385090058
:104650002326D100EFF01FCA8325C1006FF09FF819
:10466000130101FC2324C1022326D1022328E102E5
:10467000232AF102232C0103232E110313860500A4
:104680008325850093068102232E11002326D10065
:10469000EF10803F8320C1011301010467800000F7
:1046A00003A341F4130101FC2324C1022326D102F8
:1046B0002322B1022328E102232AF102232C010341
:1046C000232E110383258300930641021306050060
:1046D00013050300232E11002326D100EF10C03A4A
:1046E0008320C1011301010467800000130101FE52
:1046F000232C8100232E11001304050063060500FE
:104700008327450363800706832786009387F7FF87
:104710002324F60063DC07000327860163CAE7024F
:1047200093F7F50F1307A0006384E70283270600C1
:1047300013F5F50F138717002320E6002380B70039
:104740008320C1010324810113010102678000005D
:1047500013050400032481018320C1011301010218
:104760006F0080302326C1002324B100EFF09FB8F2
:104770000326C100832581006FF01FF9130101FE9C
:10478000232A210103A941F4232C9100232E110097
:10479000930405006306090083274903638807061D
:1047A00083A785009387F7FF23A4F50063DC070048
:1047B00003A7850163CCE70293F7F40F1307A0006A
:1047C0006386E70283A7050013F5F40F138717002C
:1047D00023A0E500238097008320C1018324810169
:1047E0000329410113010102678000008320C101F8
:1047F0001386050013050900938504000329410170
:1048000083248101130101026F00002613050900B2
:104810002326B100EFF01FAE8325C1006FF05FF8D3
:10482000130101FC232C81021304050013850500EC
:10483000232A9102232E110293840500EF00903B5E
:10484000B7270180938787CE2324F10293071000B6
:104850002326F10203274403930701029306150060
:10486000232AF10093072000232091022322A10292
:10487000232ED100232CF10083258400630007063A
:104880008397C500139727016342070203A74506D4
:10489000B7E6FFFF9386F6FF37260000B3E7C700B1
:1048A0003377D7002396F50023A2E50613064101CE
:1048B00013050400EF40C06E8320C103032481036D
:1048C000133515003305A0401375B500832441034B
:1048D0001305F5FF130101046780000013050400B0
:1048E0002326B100EFF01FA18325C1006FF05FF90F
:1048F0009305050003A541F46FF09FF2130101FF3A
:1049000023248100138405008395E50023261100EC
:10491000EF00006463400502832704058320C10083
:10492000B387A7002328F4040324810013010101A5
:10493000678000008357C40037F7FFFF1307F7FFB6
:10494000B3F7E7008320C1002316F400032481009D
:10495000130101016780000013050000678000005B
:104960008397C500130101FE232C8100232A9100A7
:104970002328210123263101232E110013F70710CC
:1049800013840500930405001309060093890600AB
:104990006310070437F7FFFF1307F7FFB3F7E700CC
:1049A0008315E4002316F400032481018320C10150
:1049B00093860900130609008329C1000329010118
:1049C0001385040083244101130101026F008064F8
:1049D0008395E5009306200013060000EF00C05009
:1049E0008317C4006FF01FFB130101FF2324810014
:1049F000138405008395E50023261100EF00C04EC7
:104A00009307F0FF6308F5028357C40037170000CF
:104A10008320C100B3E7E7009397070193D70741CD
:104A20002328A4042316F4000324810013010101A8
:104A3000678000008357C40037F7FFFF1307F7FFB5
:104A4000B3F7E7009397070193D707418320C1008D
:104A50002316F40003248100130101016780000084
:104A60008395E5006F004036130101FE232C810081
:104A7000232A910023282101232E11001309050068
:104A8000938405001304060063060500832745038D
:104A900063800716832784010317C4002324F400CE
:104AA000937787006380070883270401638C0706D8
:104AB000232631019316270193F9F40F93F4F40F91
:104AC00063D806080327040083264401B307F74090
:104AD00063D8D70A83268400130617002320C40056
:104AE0009386F6FF2324D4002300370103274401D3
:104AF000938717006302F70C8357C40093F71700DE
:104B0000639A070C8329C1008320C101032481011A
:104B100003290101138504008324410113010102CB
:104B2000678000009305040013050900EF00000EE4
:104B3000631E05080317C4002326310183270401DF
:104B40009316270193F9F40F93F4F40FE3CC06F6D0
:104B50008326440637E6FFFFB72500003367B7001A
:104B60001306F6FFB3F6C6002316E400032704007D
:104B70002322D40683264401B307F740E3CCD7F4BD
:104B80009305040013050900EF40C033631E0502BE
:104B900003270400832684009307100013061700E0
:104BA0009386F6FF2320C4002324D400230037017A
:104BB00003274401E312F7F49305040013050900E9
:104BC000EF404030E30005F48329C1009304F0FF77
:104BD0006FF09FF39307A000E396F4F293050400AF
:104BE00013050900EF40002EE30E05F06FF0DFFD26
:104BF000EFF04FF06FF01FEA9307050003A541F4B3
:104C000013860500938507006FF01FE683A741F424
:104C1000130101FF23248100232291002326110088
:104C200093040500138405006386070003A7470368
:104C3000630C070E8317C40013F78700630A070687
:104C4000032704016306070893F61700638806022A
:104C5000832644012324040013050000B306D0403A
:104C6000232CD400630A07028320C100032481009F
:104C700083244100130101016780000093F627009F
:104C80001306000063940600032644012324C40095
:104C900013050000E31A07FC13F70708E30607FCF7
:104CA00093E707042316F4001305F0FF6FF0DFFB12
:104CB00013F707016300070813F74700631C070297
:104CC0000327040193E787002316F400E31E07F689
:104CD00093F6072813060020E388C6F69305040020
:104CE00013850400EF40C07C8317C4000327040130
:104CF0006FF09FF583250403638E050013070404FA
:104D00006388E50013850400EF00D0278317C400F3
:104D1000232804020327040193F7B7FD232204008C
:104D20002320E4006FF01FFA13850700EFF08FDCFB
:104D30006FF05FF01307900023A0E40093E70704EF
:104D40002316F4001305F0FF6FF01FF293073000F5
:104D500063FEC702B3E7A50093F737006394070229
:104D6000930630006F0040011306C6FF130545008F
:104D70009385450063FCC6000327050083A7050053
:104D8000E304F7FE9306F6FF6F00C0009306F6FFFC
:104D90006308060293861600B306D5006F008000F4
:104DA0006380A6028347050003C7050013051500AD
:104DB00093851500E386E7FE3385E74067800000B2
:104DC0001305000067800000130101FF2324810008
:104DD00023229100130405001385050023261100EA
:104DE00023AE01F4EFB0DF979307F0FF630CF500FB
:104DF0008320C100032481008324410013010101A9
:104E00006780000083A7C1F5E38407FE8320C1000B
:104E10002320F400032481008324410013010101B5
:104E20006780000083A741F4638EA70A83254504A9
:104E3000130101FE232A9100232E11009304050083
:104E4000638C05042328210123263101232C8100B2
:104E50001309000093090008B387250103A4070084
:104E6000630E04009305040003240400138504006A
:104E7000EF005011E31804FE83A544041309490010
:104E8000E31C39FD13850400EF00D00F03248101DA
:104E9000032901018329C10083A5840363860500DA
:104EA00013850400EF00100E83A5C404638605007B
:104EB00013850400EF00100D83A74403638C0700E3
:104EC0008320C101138504008324410113010102E1
:104ED000678007008320C10183244101130101027F
:104EE0006780000067800000130101FF1387050041
:104EF000232481002322910093050600130405005A
:104F000013860600130507002326110023AE01F4C3
:104F1000EFB01F939307F0FF630CF5008320C100EF
:104F200003248100832441001301010167800000F4
:104F300083A7C1F5E38407FE8320C1002320F4008A
:104F400003248100832441001301010167800000D4
:104F5000130101FF13870500232481002322910000
:104F600093050600130405001386060013050700C9
:104F70002326110023AE01F4EFB09F909307F0FFBA
:104F8000630CF5008320C1000324810083244100C9
:104F9000130101016780000083A7C1F5E38407FEC8
:104FA0008320C1002320F4000324810083244100D6
:104FB0001301010167800000130101FF2324810018
:104FC00023229100130405001385050023261100F8
:104FD00023AE01F4EFB0DF9A9307F0FF630CF50006
:104FE0008320C100032481008324410013010101B7
:104FF0006780000083A7C1F5E38407FE8320C1001A
:105000002320F400032481008324410013010101C3
:1050100067800000130101FF13870500232481002E
:105020002322910093050600130405001386060051
:10503000130507002326110023AE01F4EFB05F8BA8
:105040009307F0FF630CF5008320C1000324810067
:1050500083244100130101016780000083A7C1F58B
:10506000E38407FE8320C1002320F4000324810091
:10507000832441001301010167800000130101FF37
:1050800023248100B72701803724018023202101B8
:105090009387073C1307043C232611002322910029
:1050A0003389E7406382E702135929401304043C23
:1050B0009304000083270400938414001304440025
:1050C000E7800700E3E824FF37240180B727018049
:1050D0009387073C1307043C3389E7401359294061
:1050E0006380E7021304043C930400008327040058
:1050F0009384140013044400E7800700E3E824FFCE
:105100008320C1000324810083244100032901007E
:105110001301010167800000130101FF23248100B6
:10512000B7270180372401809387073C1304043C90
:105130003304F44023229100232611009354244089
:10514000638004021304C4FF3304F40083270400C3
:105150009384F4FF1304C4FFE7800700E39804FE80
:105160008320C10003248100832441001301010135
:10517000678000001303F00013070500637EC3027D
:105180009377F7006390070A63920508937606FF0A
:105190001376F600B386E6002320B7002322B7007B
:1051A0002324B7002326B70013070701E366D7FEC1
:1051B0006314060067800000B306C3409396260080
:1051C00097020000B38656006780C6002307B70029
:1051D000A306B7002306B700A305B7002305B70051
:1051E000A304B7002304B700A303B7002303B70049
:1051F000A302B7002302B700A301B7002301B70041
:10520000A300B7002300B7006780000093F5F50FF7
:1052100093968500B3E5D50093960501B3E5D500D7
:105220006FF0DFF69396270097020000B3865600D2
:1052300093820000E78006FA93800200938707FFBD
:105240003307F7403306F600E378C3F66FF0DFF379
:10525000B3C7A50093F73700B308C50063940706EA
:105260009307300063F0C7069377350013070500F6
:10527000639A070613F6C8FFB306E64093070002D9
:1052800063CED70893860500930707006378C702AB
:1052900003A80600938747009386460023AE07FFC6
:1052A000E3E8C7FE9307F6FFB387E74093F7C7FF2E
:1052B000938747003307F700B385F500636817014C
:1052C00067800000130705006378150583C7050094
:1052D0001307170093851500A30FF7FEE398E8FE68
:1052E0006780000083C60500130717009377370017
:1052F000A30FD7FE93851500E38E07F683C605003E
:105300001307170093773700A30FD7FE9385150077
:10531000E39A07FC6FF01FF667800000130101FF9E
:10532000232681001304000283A3050083A2450005
:1053300083AF850003AFC50083AE050103AE450111
:1053400003A3850103A8C50183A60502130747022D
:10535000B307E640232E77FC232057FE2322F7FFD6
:105360002324E7FF2326D7FF2328C7FF232A67FE2E
:10537000232C07FF232ED7FE93854502E346F4FA3C
:1053800093860500930707006378C70203A8060009
:10539000938747009386460023AE07FFE3E8C7FEE6
:1053A0009307F6FFB387E74093F7C7FF938747005C
:1053B0003307F700B385F500636817010324C100C4
:1053C000130101016780000083C705001307170060
:1053D00093851500A30FF7FEE382E8FE83C705005F
:1053E0001307170093851500A30FF7FEE39EE8FC53
:1053F0006FF0DFFC9377350013070500639C07040B
:10540000B7867F7F9386F6F79305F0FF03260700A4
:1054100013074700B377D600B387D700B3E7C700B9
:10542000B3E7D700E384B7FE8346C7FFB307A740BF
:10543000638406048346D7FF638C06020345E7FFB7
:105440003335A0003305F5001305E5FF6780000044
:10545000E38806FA8347070013071700937637009F
:10546000E39807FE3307A7401305F7FF67800000A6
:105470001385D7FF678000001385C7FF6780000092
:1054800083A701F6638C070403A747001308F00104
:105490006340E808131827006306050233830701F9
:1054A0002324C30883A88718130610003316E600C8
:1054B000B3E8C80023A417192324D31093062000AF
:1054C0006306D5021307170023A2E700B38707017D
:1054D00023A4B70013050000678000001388810C27
:1054E00023A001F79387810C6FF01FFA83A6C718DA
:1054F0001307170023A2E700B3E6C60023A6D718B8
:10550000B387070123A4B7001305000067800000DC
:105510001305F0FF67800000130101FD232C4101FA
:105520002320210303A901F6232611026308090A97
:10553000232E3101232A51012328610123267101E1
:10554000232481022322910223248101130B0500CD
:10555000938B05009309F0FF930A10008324490000
:105560001384F4FF634E040493942400B30499005D
:1055700063900B088327490083A644009387F7FFB5
:10558000638C870A23A20400638606028327891896
:1055900033978A00032C4900B377F7006396070618
:1055A000E78006000327490083A701F663108709F7
:1055B000639E27071304F4FF9384C4FFE31A34FBAC
:1055C00003248102832441028329C101832A4101EA
:1055D000032B0101832BC100032C81008320C10216
:1055E00003290102032A81011301010367800000DE
:1055F00083A74410E38077F91304F4FF9384C4FF76
:10560000E31834FF6FF0DFFB8327C91883A5440834
:105610003377F7006316070213050B00E7800600D7
:105620000327490083A701F6E30487F9E38A07F813
:10563000138907006FF09FF2232289006FF0DFF4D7
:1056400013850500E78006006FF0DFF5130101FE0A
:1056500023263101B7290180232C8100232A9100C0
:105660002328210123244101232E1100138A050040
:10567000130905009389893EEFE09F9603A78900EF
:10568000B71700009387F7FE832447003717000001
:1056900093F4C4FF3384F400330444411354C4002E
:1056A0001304F4FF1314C400634EE40093050000D8
:1056B00013050900EFF05F9083A78900B387970077
:1056C0006308F50213050900EFE0DF918320C101B3
:1056D0000324810183244101032901018329C1009D
:1056E000032A8100130500001301010267800000F6
:1056F000B305804013050900EFF01F8C9307F0FFFE
:105700006308F504938781F603A7070083A6890041
:10571000B384844093E414003307874013050900E1
:1057200023A2960023A0E700EFE0DF8B8320C101D6
:105730000324810183244101032901018329C1003C
:10574000032A810013051000130101026780000085
:105750009305000013050900EFF01F8603A78900D9
:105760009306F000B307E540E3DEF6F483A6C1F349
:1057700093E717002322F7003305D54023A4A1F6B1
:105780006FF05FF463820518130101FF2324810089
:1057900023229100138405009304050023261100A1
:1057A000EFE01F840325C4FF130784FFB7250180A2
:1057B0009377E5FF3306F7009385853E8326460001
:1057C00003A8850093F6C6FF6302C81A2322D600F9
:1057D000137515003308D6006310050A032384FFF0
:1057E0000328480037250180330767408328870056
:1057F0001305053FB3876700137818006382A81468
:105800000323C70023A66800232413016306081A94
:1058100093E617002322D7002320F6009306F01FFB
:1058200063ECF60693F687FF9386860003A5450092
:10583000B386D50003A6060013D8570093071000BF
:10584000B3970701B3E7A700138586FF2326A700B8
:105850002324C70023A2F50023A0E6002326E600A8
:10586000032481008320C1001385040083244100A8
:10587000130101016FE00FF70325480013751500B0
:105880006306050893E61700232ED4FE2320F600B6
:105890009306F01FE3F8F6F893D69700130640003E
:1058A0006360D61293D6670013859603138686032A
:1058B000131535003385A50083260500130585FFE4
:1058C0006318D5006F00401583A686006308D500D5
:1058D00003A646001376C6FFE3E8C7FE03A5C6008D
:1058E0002326A7002324D700032481002324E500D6
:1058F0008320C100138504008324410023A6E60011
:10590000130101016FE00FEE678000003725018071
:10591000B387D7001305053F83268600638CA60C4A
:105920000328C60013E517003306F70023A6060177
:105930002324D8002322A7002320F6006FF01FEEB7
:10594000631C0812832586000326C600B386F60072
:1059500093E7160023A6C5002324B6002322F700F0
:105960003307D7002320D7006FF09FEF1375150082
:10597000B386D70063100502032584FF3307A740D1
:105980008327C70003268700B386A6002326F600D8
:1059900023A4C70013E6160083A701F42322C7003F
:1059A00023A4E500E3EEF6EA83A541F513850400A0
:1059B000EFF0DFC96FF0DFEAB387D7006FF0DFF5F4
:1059C000130640016370D602130640056364D606D1
:1059D00093D6C7001385F6061386E6061315350021
:1059E0006FF05FED1385C6051386B60513153500F8
:1059F0006FF05FEC23AAE50023A8E50093E617000B
:105A00002326A7002324A7002322D7003307F7006B
:105A10002320F7006FF0DFE403A84500135626406B
:105A200093071000B397C700B3E7070123A2F5005F
:105A30006FF01FEB13064015636CD60093D6F7008A
:105A40001385860713867607131535006FF09FE6DA
:105A500013064055636CD60093D627011385D607ED
:105A60001386C607131535006FF0DFE41305803F7A
:105A70001306E0076FF01FE493E617002322D70018
:105A80002320F6006FF0DFDD130101ED2326111254
:105A900023229112232A511123267111938A050082
:105AA000930406002324D100930B0500EF30507EB1
:105AB00083270500138507002322F102EFF09F934F
:105AC0002320A10263880B0083A74B036394070084
:105AD0006F1040738397CA0013972701634607022C
